:020000040800F2
:1000000028090020510C00087D0200087F0200082A
:1000100083020008870200088B020008000000002D
:100020000000000000000000000000008F02000837
:1000300091020008000000009302000895020008E9
:100040006B0C00086B0C00086B0C00086B0C0008B4
:100050006B0C00086B0C00086B0C00086B0C0008A4
:100060006B0C00086B0C00086B0C00086B0C000894
:100070006B0C00086B0C00086B0C00086B0C000884
:100080006B0C00086B0C00086B0C00086B0C000874
:100090006B0C00086B0C00086B0C00086B0C000864
:1000A0006B0C00086B0C00086B0C00086B0C000854
:1000B000030C00086B0C00086B0C00086B0C0008AC
:1000C0006B0C00086B0C00086B0C00086B0C000834
:1000D0006B0C0008F90500086B0C00086B0C00089D
:1000E0006B0C00086B0C00086B0C00086B0C000814
:1000F0006B0C00086B0C00086B0C00086B0C000804
:100100006B0C00086B0C00086B0C00086B0C0008F3
:100110006B0C00086B0C00086B0C00086B0C0008E3
:100120006B0C00086B0C00086B0C00086B0C0008D3
:1001300000F002F800F05AF80AA090E8000C82449F
:100140008344AAF10107DA4501D100F04FF8AFF27C
:10015000090EBAE80F0013F0010F18BFFB1A43F0A5
:1001600001031847B02D0000D02D00000A444FF0C5
:10017000000C10F8013B13F0070408BF10F8014B06
:100180001D1108BF10F8015B641E05D010F8016B4B
:10019000641E01F8016BF9D113F0080F1EBF10F8AF
:1001A000014BAD1C0C1B09D16D1E58BF01F801CBD2
:1001B000FAD505E014F8016B01F8016B6D1EF9D555
:1001C0009142D6D37047000000230024002500266A
:1001D000103A28BF78C1FBD8520728BF30C148BFAA
:1001E0000B6070471FB51FBD10B510BD02F053FA6C
:1001F0001146FFF7F7FF00F01FF802F071FA03B4A1
:10020000FFF7F2FF03BC00F09DF9000008B51848A5
:10021000007820B100201649087000F090FC1548C5
:10022000007840B11020022300901348027800218A
:10023000084600F0F9FA08BD08B500F0A7FB00F089
:10024000BAFC00F053FC102002233722194600901C
:10025000002000F0E9FA03E000F05FFCFFF7D6FFB2
:10026000FAE705480078401C034908707047000011
:10027000E9010020E801002000000020704700BFD5
:10028000FEE700BFFEE700BFFEE700BFFEE77047E6
:1002900070477047704700000CB500200190009037
:1002A0006B48006840F480306949086000BF6848C6
:1002B000006800F4003000900198401C0190009804
:1002C00018B90198B0F5A06FF1D16148006810F439
:1002D000003F02D00120009001E000200090009833
:1002E000012842D15B48006840F01000594908607D
:1002F0000846006820F0030008600846006840F0E7
:100300000200086052484068514948600846406809
:1003100048600846406840F480604860084640688D
:1003200020F47C1048600846406840F4E8104860BB
:100330000846006840F08070086000BF44480068CC
:1003400010F0007FFAD04248406820F00300404996
:1003500048600846406840F00200486000BF3C48E2
:10036000406800F00C000828F9D10CBD10B5FFF76B
:1003700093FF10BD10B53648006840F001003449C5
:1003800008600846406834490840314948600846DA
:100390000068324908402E4908600846006820F489
:1003A000802008600846406820F4FE0048604FF452
:1003B0001F008860FFF7DAFF4FF0006028490860EF
:1003C00010BD10B5002100200022214B5B6803F016
:1003D0000C0121B1042906D0082928D107E0214BBE
:1003E000214C236027E01F4B1F4C236023E0184B58
:1003F0005B6803F47010164B5B6803F480320223D1
:1004000003EB904022B9194B4343174C23600DE096
:100410000F4B5B6813F4003F04D0144B4343124C62
:10042000236003E00F4B43430F4C236003E00D4B6D
:100430000D4C236000BF00BF054B5B68C3F3031383
:100440000B4CE15C084B1B68CB40074C236010BD94
:1004500000100240002002400000FFF8FFFFF6FEFF
:1004600008ED00E000127A000400002000093D00C1
:100470000800002010B56FF0040000F059FC2D4872
:1004800000682D49B0FBF1F02C490870084600784F
:1004900000EB4001C1EBC0104FF6FF7101EAC00054
:1004A0002749088010BD0146244A12784A434FF07C
:1004B000E0235A6100229A611A46126942F0010251
:1004C0001A6100BF4FF0E022106910F0010F02D056
:1004D00010F4803FF6D04FF0E022126922F00102C2
:1004E0004FF0E0231A6100229A6170470146144AD6
:1004F00012884A434FF0E0235A6100229A611A465B
:10050000126942F001021A6100BF4FF0E022106947
:1005100010F0010F02D010F4803FF6D04FF0E0222F
:10052000126922F001024FF0E0231A6100229A6161
:10053000704700000400002000127A00180000201C
:100540001A000020014600BF704700BF494A1288C8
:1005500012F0400FFAD0C2B2464B1B1D1A807047F2
:1005600010B586B00446012144F2040000F014FFE7
:100570004FF40070ADF8140003208DF81600182019
:100580008DF8170005A93C4800F050FC4FF480603E
:10059000ADF8140004208DF8170005A9364800F0C6
:1005A00045FC25208DF8000003208DF801008DF812
:1005B000020001208DF80300684600F06EFB0194F4
:1005C0000020ADF80800ADF80A00ADF80C00ADF859
:1005D00010000C20ADF80E0001A9264801F095FE90
:1005E000012240F22551234801F027FF0121214833
:1005F00001F017FF06B010BD10B540F225511D489F
:1006000002F000F810B31B4801F07CFFC4B21B4895
:10061000008810F4004F2BD11848008810F4804F48
:100620000CD00A2C03D000201449088020E0134885
:10063000008840F400401149088019E00D2C06D1D3
:100640000E48008840F480400C49088010E00B48B8
:100650000088C0F30D000A490C5408480088401C6B
:100660000649088008460088C72801DD0020088068
:1006700010BD000000380140000801401C000020AF
:100680000002002070B504460D46002625B1012168
:10069000FE4800F076FC03E00121FC4800F073FC0A
:1006A0004FF48051F94800F06EFC00261BE04FF437
:1006B0000051F64800F067FC14F0800F05D04FF4AD
:1006C0000041F24800F05DFC04E04FF40041EF48C7
:1006D00000F059FC4FF40051EC4800F052FC600669
:1006E000040E701CC6B2082EE1DB4FF48051E748BF
:1006F00000F047FC0121E54800F043FC70BD70B5F7
:1007000004460D4605F1B001C8B20021FFF7BAFF5B
:10071000102141EA14100021FFF7B4FF04F00F018B
:1007200041F001000021FFF7ADFF70BD10B50021C1
:100730008D20FFF7A7FF00211420FFF7A3FF002162
:10074000AF20FFF79FFF10BD10B500218D20FFF7F0
:1007500099FF00211020FFF795FF0021AE20FFF741
:1007600091FF10BD70B50024002500BF19E004F111
:10077000B001C8B20021FFF785FF00210846FFF74E
:1007800081FF00211020FFF77DFF002505E00121FA
:100790000020FFF777FF681CC5B2802DF7DB601CD7
:1007A000C4B2082CE3DB70BD2DE9F04107460E46CC
:1007B000904600250024A8F12000C5B27F2F02DD5D
:1007C0000027B01CC6B231463846FFF798FF002418
:1007D00008E004EB0511AE4A505C0121FFF752FF1F
:1007E000601CC4B2082CF4DB701CC1B23846FFF7A1
:1007F00086FF002409E004EB05110831A44A505C8F
:100800000121FFF73FFF601CC4B2082CF3DBBDE8F9
:10081000F08110B50246012000E050430B00A1F129
:100820000104E1B2F9D110BD2DE9FF5F0746914601
:100830001D460E9E4FF0000A002433E0281B401E88
:10084000C1B20A20FFF7E5FFB9FBF0F00A21B0FBC7
:10085000F1F201FB1208BAF1000F13D1681EA04299
:1008600010DDB8F1000F0BD1B34606EBDB71491078
:1008700001FB0471C8B220220199FFF795FF0FE038
:100880004FF0010AB34606EBDB71491001FB04711E
:10089000C8B208F13001CAB20199FFF785FF00BF65
:1008A000601CC4B2AC42C9DBBDE8FF9F2DE9F0413A
:1008B00004460F46154600260EE0AA5D394620463E
:1008C000FFF772FF04F10800C4B2782C02DD0024A7
:1008D000B81CC7B2701CC6B2A85D0028EDD1BDE837
:1008E000F0812DE9F04107460E46154600243146B9
:1008F0003846FFF704FF00BF08E0664A02EB8511A7
:10090000085D0121FFF7BEFE601CC4B2102CF4DBB1
:10091000701CC1B23846FFF7F2FE00240AE06900FD
:10092000491C5C4A02EB4111085D0121FFF7AAFE58
:10093000601CC4B2102CF2DBBDE8F0812DE9F05F41
:1009400005460E4617469846DDF828A04FF0000BE6
:100950000024344616E021462846FFF7D0FEA9467B
:100960000CE059464A1C02F0FF0B1AF80100012165
:10097000FFF788FE09F1010000F0FF09B945F0DB3F
:10098000601CC4B24445E6DBBDE8F09F08B5FFF744
:1009900071FD0121082000F0FFFC4BF20300ADF8CF
:1009A000000010208DF8030003208DF80200694636
:1009B000364800F03BFA4BF20301344800F0E1FA0C
:1009C0000221324800F0DDFA1420FFF78FFD0221EA
:1009D0002E4800F0D8FA1420FFF788FD02212B489A
:1009E00000F0CFFA0021AE20FFF74CFE00210846B0
:1009F000FFF748FE00211020FFF744FE00214020B1
:100A0000FFF740FE00218120FFF73CFE0021CF20B0
:100A1000FFF738FE0021A120FFF734FE0021C82097
:100A2000FFF730FE0021A620FFF72CFE0021A820B2
:100A3000FFF728FE00213F20FFF724FE0021D320EE
:100A4000FFF720FE00210846FFF71CFE0021D520FD
:100A5000FFF718FE00218020FFF714FE0021D920A7
:100A6000FFF710FE0021F120FFF70CFE0021DA2035
:100A7000FFF708FE00211220FFF704FE0021DB2013
:100A8000FFF700FE0021402006E00000000C0140BE
:100A90001C29000824000020FFF7F4FD002120207D
:100AA000FFF7F0FD00210220FFF7ECFD00218D2073
:100AB000FFF7E8FD00211420FFF7E4FD0021A4204A
:100AC000FFF7E0FD0021A620FFF7DCFD0021AF20AD
:100AD000FFF7D8FD0021AF20FFF7D4FDFFF742FE5E
:100AE00000210846FFF70BFE08BD000008B50121F4
:100AF000102000F051FC0120ADF8000028208DF8F6
:100B0000030003208DF8020069461C4800F08EF9AE
:100B100001211A4800F035FA08BD10B518480078D0
:100B200018490978884205D015480078012801D075
:100B3000FFF797FB134800781149087010BD10B5F6
:100B400001210E4800F003FA0F49098840EA4100EC
:100B50000D49088008460088FF2803D10120094973
:100B6000087005E00848008810B9002005490870A1
:100B70000121024800F005FA10BD000000100140FC
:100B8000E5010020E4010020E601002008B54FF453
:100B9000E06000F07DF81C208DF8000000208DF84A
:100BA000010003208DF8020001208DF80300684643
:100BB00000F073F808BD0EB5FFF7E8FF0121084605
:100BC00000F0F7FB4FF47A70ADF804004720ADF861
:100BD00000000020ADF80600ADF8020069464FF0B5
:100BE000804000F015FD0121880701F033FB012250
:100BF0001146900701F083F80121880701F064F89D
:100C00000EBD10B50121880701F027FBC8B10120F6
:100C10000C4908700C480088C82806DB00200A49E7
:100C2000088001200949087007E007480088401C37
:100C3000054908800020054908700121880701F056
:100C40001DFB10BDE9010020EA010020E8010020A1
:100C50000948804709480047FEE7FEE7FEE7FEE750
:100C6000FEE7FEE7FEE7FEE7FEE7FEE7044805498C
:100C7000054A064B70470000750300083101000863
:100C8000280300202809002028050020280500202E
:100C900031490143314A1160704770B5002100238A
:100CA0000F22C4780CB32D4C246804F4E064C4F51E
:100CB000E064210AC1F10403CA40447804FA03F154
:100CC0008478144021430901254C0678A155047805
:100CD00004F01F050124AC4005786D114FF0E026AB
:100CE00006EB8505C5F8004109E0047804F01F050E
:100CF0000124AC401B4D0678761145F8264070BDA6
:100D0000194A0A400243154B1B1F1A60704739B13C
:100D1000124A121D12680243104B1B1D1A6006E096
:100D20000E4A121D126882430C4B1B1D1A6070473D
:100D3000042808D14FF0E021096941F004014FF087
:100D4000E022116107E04FF0E021096921F0040180
:100D50004FF0E022116170470000FA050CED00E051
:100D600000E400E080E100E080FFFF1F10B50446D2
:100D7000CA48844208D10121042000F027FB002149
:100D8000042000F023FB46E0C548844208D101213D
:100D9000082000F01BFB0021082000F017FB3AE0C0
:100DA000C048844208D10121102000F00FFB00212F
:100DB000102000F00BFB2EE0BB48844208D101213B
:100DC000202000F003FB0021202000F0FFFA22E0A9
:100DD000B648844208D10121402000F0F7FA0021F2
:100DE000402000F0F3FA16E0B148844208D1012116
:100DF000802000F0EBFA0021802000F0E7FA0AE002
:100E0000AC48844207D10121801500F0DFFA0021AF
:100E1000A01500F0DBFA10BD10B50121084600F066
:100E2000D5FA0021012000F0D1FA10BD2DE9F041E2
:100E3000024600250026002000230024002791F808
:100E400003C00CF00F0591F803C01CF0100F03D085
:100E500091F802C04CEA050591F800C0BCF1000F02
:100E600031D0146800202BE04FF0010C0CFA00F395
:100E7000B1F800C00CEA03069E4220D183004FF077
:100E80000F0C0CFA03F7BC4305FA03FC4CEA04040C
:100E900091F803C0BCF1280F06D14FF0010C0CFAF9
:100EA00000FCC2F814C00AE091F803C0BCF1480F7E
:100EB00005D14FF0010C0CFA00FCC2F810C0401C28
:100EC0000828D1D31460B1F800C0BCF1FF0F34DDA5
:100ED000546800202EE000F1080C4FF0010808FAD9
:100EE0000CF3B1F800C00CEA03069E4221D1830046
:100EF0004FF00F0C0CFA03F7BC4305FA03FC4CEA65
:100F0000040491F803C0BCF1280F05D100F1080CCE
:100F100008FA0CF8C2F8148091F803C0BCF1480F2D
:100F200007D100F1080C4FF0010808FA0CF8C2F8DC
:100F30001080401C0828CED35460BDE8F0814FF6E5
:100F4000FF710180022181700421C1707047024647
:100F5000002093680B4201D0012000E00020704780
:100F60000146886880B2704702460020D3680B4271
:100F700001D0012000E0002070470146C86880B21F
:100F8000704701617047416170470AB1016100E03B
:100F900041617047C16070474FF480320A438261FB
:100FA0008161826182698269704702460020424BFA
:100FB00018684FF68073184040EA021008433E4B11
:100FC000186070473D49C8617047F0B50A46002374
:100FD00000240021002500F00046B6F1004F02D1A8
:100FE000354EF16901E0344E7168C0F3034583B2B8
:100FF00000F44016B6F5401F08D121F070612E4E66
:10100000766826F070662C4F7E6012E000F4801641
:10101000B6F5801F06D1032606FA05F4A14341F078
:10102000706106E0460D360103FA06F6B14341F061
:10103000706122B1460D360103FA06F6314300F025
:101040000046B6F1004F02D11B4EF16101E01A4E8D
:101050007160F0BD30B500228B071C0F0F2303FA1F
:1010600004F2154B08338C1053F824309343124C80
:1010700008348D1044F8253023468C1053F8243062
:101080008C07240F00FA04F423430B4C08348D1012
:1010900044F8253030BD0A49086070470008014017
:1010A000000C0140001001400014014000180140F4
:1010B000001C0140002001400000014000002042CF
:1010C000DC002042DD48006840F00100DB49086098
:1010D00008464068DA490840D84948600846006830
:1010E000D8490840D54908600846006820F48020A7
:1010F00008600846406820F4FE0048604FF41F0076
:1011000088607047CD49096821F48031CB4A11606D
:101110001146096821F480211160B0F5803F03D0A9
:10112000B0F5802F0ED106E0C449096841F4803142
:10113000C24A116007E0C149096841F4A021BF4AD1
:10114000116000E000BF00BF704710B501460022EB
:10115000002300204A11012A02D1B84C236806E07E
:10116000022A02D1B54C236A01E0B44C636A01F053
:101170001F02012494401C4201D0012000E0002005
:1011800010BD38B5002000900024002500BF31209C
:10119000FFF7DBFF05460098401C00900098B0F573
:1011A000A06F01D0002DF2D03120FFF7CEFF08B1A3
:1011B000012400E00024204638BD014600209F4A5B
:1011C000106820F0F80040EAC100106070479E49A6
:1011D0000860704702460020984B586820F47C1045
:1011E00042EA01031843954B5860704796490866D8
:1011F000704701460020914A506820F003000843E0
:10120000506070478D48406800F00C007047014600
:1012100000208A4A506820F0F00008435060704770
:1012200001460020854A506820F4E0600843506081
:10123000704701460020814A506820F4605040EA1F
:10124000C1005060704729B17C4A527A02437B4BFF
:101250005A7204E0794A527A8243784B5A72704744
:101260007A490860704701460020744A506820F4AB
:1012700040400843506070470021754A11706F4A22
:1012800082F82010012802D0042808D103E00121AF
:101290006F4A117004E005216D4A117000E000BF33
:1012A00000BF70476B49086070476449096A014391
:1012B000624A11627047674944390860704730B527
:1012C00000210022002400235C4D6D6805F00C0114
:1012D00021B1042905D0082923D105E05E4D056020
:1012E00022E05D4D05601FE0544D6D6805F47012FD
:1012F000524D6D6805F48034022505EB92421CB90D
:10130000564D554305600BE04C4D6D6815F4003F9C
:1013100003D0524D5543056002E04F4D55430560E3
:1013200002E04D4D056000BF00BF444D6D6805F003
:10133000F00109094A4D6B5C0568DD4045603F4D91
:101340006D6805F4E061090A454D6B5C4568DD4058
:1013500085603A4D6D6805F46051C90A404D6B5C7B
:101360004568DD40C560354D6D6805F44041890B29
:101370003C4D6B5CC568B5FBF3F5056130BD29B12B
:101380002E4A526902432D4B5A6104E02B4A52699E
:1013900082432A4B5A61704729B1284A9269024315
:1013A000264B9A6104E0254A92698243234B9A6155
:1013B000704729B1214AD2690243204BDA6104E027
:1013C0001E4AD26982431D4BDA61704729B11B4A1C
:1013D000D2680243194BDA6004E0184AD2688243AB
:1013E000164BDA60704729B1144A12690243134B55
:1013F0001A6104E0114A12698243104B1A61704766
:1014000014494039086070470F49C86470470B4958
:10141000C87170470948406A40F0807007494862C7
:10142000704701460020054A92680A4201D0012017
:1014300000E00020704701498872704700100240A8
:101440000000FFF8FFFFF6FE00004242D8004242D3
:10145000201002408004424200127A0000093D0040
:10146000EC010020FC01002010B50446FE48844237
:1014700008D10121C014FFF7A9FF0021E014FFF7F4
:10148000A5FFC4E0B4F1804F08D101210846FFF761
:10149000AAFF00210120FFF7A6FFB8E0F34884422D
:1014A00008D101210220FFF79EFF00210220FFF753
:1014B0009AFFACE0EE48844208D101210420FFF7F6
:1014C00092FF00210420FFF78EFFA0E0E94884424C
:1014D00008D101210820FFF786FF00210820FFF72F
:1014E00082FF94E0E448844208D101211020FFF7F4
:1014F0007AFF00211020FFF776FF88E0DF48844262
:1015000008D101212020FFF76EFF00212020FFF7E6
:101510006AFF7CE0DA48844208D101214014FFF7D9
:1015200055FF00216014FFF751FF70E0D548844259
:1015300009D10121C804FFF749FF00214FF4002021
:10154000FFF744FF63E0D048844209D10121080538
:10155000FFF73CFF00214FF48010FFF737FF56E004
:10156000CA48844209D101214805FFF72FFF002115
:101570004FF40010FFF72AFF49E0C548844208D124
:1015800001214020FFF72FFF00214020FFF72BFF14
:101590003DE0C048844208D101218020FFF723FFAD
:1015A00000218020FFF71FFF31E0BB48844208D1B3
:1015B00001218015FFF717FF0021A015FFF713FF8A
:1015C00025E0B648844209D101210804FFF7FEFE58
:1015D00000214FF48030FFF7F9FE18E0B048844254
:1015E00009D101214804FFF7F1FE00214FF400303A
:1015F000FFF7ECFE0BE0AB48844208D101218804E0
:10160000FFF7E4FE00214FF48020FFF7DFFE10BD5E
:1016100000220288944B98420ED0994B98420BD0EE
:10162000B0F1804F08D0914B984205D0904B984232
:1016300002D0904B984204D14FF68F731A404B88DA
:101640001A438D4B984207D08C4B984204D04FF6EA
:10165000FF431A40CB881A4302808B8883850B880E
:101660000385814B98420BD0854B984208D08B4B19
:10167000984205D08A4B984202D08A4B984201D1B9
:101680000B7A038601238382704770B50024002201
:101690000023058C4FF6FE7635400584028C838846
:1016A000048B4FF68F752C40B51E2C400D882C43B3
:1016B000751E2A400D892A434D882A436A4DA84247
:1016C0000BD06F4DA84208D0744DA84205D0744D80
:1016D000A84202D0734DA84213D14FF6F7752A40A5
:1016E0004D892A434FF6FB752A408D882A434FF6D1
:1016F000FF652B404FF6FF552B408D892B43CD893D
:101700002B4383800483CD888586028470BD70B5A9
:10171000002400220023058C4FF6EF763540058427
:10172000028C8388048B48F6FF752C404FF6FF45EA
:101730002C400D884FF6FF7606EA05252C434FF620
:10174000DF752A400D8906EA05152A434D8806EA09
:1017500005152A43444DA84202D0494DA8421DD147
:101760004FF67F752A404D894FF6FF7606EA05153C
:101770002A434FF6BF752A408D8806EA05152A438D
:101780004FF6FF352B404FF2FF752B408D8906EA4F
:1017900085052B43CD8906EA85052B438380048389
:1017A000CD880587028470BD70B500240022002317
:1017B000058C4FF6FF6635400584028C8388848B48
:1017C0004FF68F752C404FF6FC752C400D882C433E
:1017D0004FF6FF552A400D894FF6FF7606EA05259C
:1017E0002A434D8806EA05252A431F4DA84202D008
:1017F000234DA8421DD14FF2FF752A404D894FF667
:10180000FF7606EA05252A434FF6FF352A408D88E4
:1018100006EA05252A434EF6FF752B404DF6FF7567
:101820002B408D8906EA05152B43CD8906EA05155F
:101830002B4383808483CD888587028470BD70B5F7
:10184000002200230024058C4EF6FF7635400584E7
:10185000038C8488828B48F6FF752A404FF6FF453B
:101860002A400D8820E00000002C014000040040C8
:1018700000080040000C0040001000400014004030
:1018800000340140004C0140005001400054014030
:1018900000180040001C00400020004000400140B3
:1018A00000440140004801404FF6FF7606EA052556
:1018B0002A434DF6FF752B400D8906EA05352B436B
:1018C0004D8806EA05352B43FA4DA84202D0FA4D61
:1018D000A84208D14BF6FF752C408D894FF6FF7654
:1018E00006EA85152C4384808283CD88A0F8405079
:1018F000038470BD828B4FF2FF331A408283828B48
:101900004FF6FF7303EA01231A4382837047F0B551
:101910000C461546002200210026078C4EF6FF7C5F
:1019200007EA0C070784828B018C4FF6FF7707EAE2
:10193000043640F6FF473A404FF6FF7707EA05279F
:101940003A434FF6FF7707EA03373A43D94FB84295
:101950000ED0D94FB8420BD0B0F1804F08D0D74F3E
:10196000B84205D0D64FB84202D0D64FB84206D1C1
:101970004DF6FF77394046F48057394305E047F686
:10198000FF57394044F48057394382830184F0BDC6
:10199000828B4FF6F3731A408283828B0A438283D1
:1019A0007047F0B50C461546002200210026078C32
:1019B0004FF6FF6C07EA0C070784828B018C4FF609
:1019C000FF7707EA04264FF60C773A404FF6FF7789
:1019D00007EA03172F433A43B64FB8420ED0B64F2B
:1019E000B8420BD0B0F1804F08D0B44FB84205D008
:1019F000B34FB84202D0B34FB84206D14FF6FF57AB
:101A0000394046F48077394305E04FF2FF573940BB
:101A100044F48077394382830184F0BD028B4FF216
:101A2000FF331A400283028B4FF6FF7303EA012350
:101A30001A4302837047F0B50C4615460022002178
:101A40000026078C4FF6EF7C07EA0C070784028B11
:101A5000018C4FF6FF7707EA041640F6FF473A403D
:101A60004FF6FF7707EA03373A434FF6FF7707EA67
:101A700005273A438F4FB8420ED08F4FB8420BD054
:101A8000B0F1804F08D08D4FB84205D08C4FB8428E
:101A900002D08C4FB84206D14FF6DF77394046F07E
:101AA0001007394305E04FF65F77394044F01007DF
:101AB000394302830184F0BD028B4FF6F3731A4061
:101AC0000283028B0A4302837047F0B50C46154629
:101AD00000220021068C4FF6FE773E400684028BE2
:101AE000018C4FF60C7632407E1C06EA03162E431C
:101AF0003243704EB0420ED06F4EB0420BD0B0F1B8
:101B0000804F08D06D4EB04205D06D4EB04202D02D
:101B10006C4EB04206D14FF6FD76314044F00106DE
:101B2000314305E04FF6F576314044F0010631438C
:101B300002830184F0BD70B505460C465D488542C0
:101B40000ED05D4885420BD0B5F1804F08D05B4880
:101B5000854205D05A48854202D05A48854200D174
:101B600000E000BF208850B92389A28861882846F8
:101B7000FFF7ABFFE1882846FFF79EFF25E02088AE
:101B800004280AD12389A28861882846FFF753FFD9
:101B9000E1882846FFF742FF17E0208808280AD18D
:101BA0002389A28861882846FFF7FBFEE188284642
:101BB000FFF7EEFE09E02389A28861882846FFF737
:101BC000A6FEE1882846FFF795FE70BD2DE9F0419D
:101BD00005460C4600260127608808B9022600E069
:101BE0000026A088012801D1022700E001272088D3
:101BF000A0B92389A28861882846FFF766FFE1889B
:101C00002846FFF759FF23893A4631462846FFF711
:101C100012FFE1882846FFF701FF13E02389A2881D
:101C200061882846FFF707FFE1882846FFF7F6FEA0
:101C300023893A4631462846FFF747FFE188284680
:101C4000FFF73AFFBDE8F0810A884B881A438B887A
:101C50001A43CB881A430B891A434B891A438B8941
:101C60001A43A0F8442070474FF6FF71818000218D
:101C70000180C18041800172704700210180418054
:101C80008180C180018141818181C18170470021B2
:101C900001804180012181800021C1800181704744
:101CA0000021018041808180C18001814181818149
:101CB00070470000002C0140003401400004004047
:101CC00000080040000C004021B1028842F00102EF
:101CD000028004E002884FF6FE731A4002807047CB
:101CE00031B1B0F8442042F40042A0F8442005E0AD
:101CF000B0F84420C2F30E02A0F8442070471AB195
:101D000083890B43838102E083898B4383817047FE
:101D10008182704741EA0203A0F8483070471AB147
:101D200083890B43838102E083898B4383817047DE
:101D300001894FF6F8721140018170470A4600216F
:101D400001894FF68F73194011430181704730B5F7
:101D500004460D4629462046FFF7F0FF208940F053
:101D60000700208130BD2DE9F04104460D4616469E
:101D70001F46602D06D13B46012231462046FFF723
:101D80005AFE05E03B46012231462046FFF79DFE04
:101D900029462046FFF7D2FF208940F00700208126
:101DA000BDE8F08130B50C4600210189C9B24FF67B
:101DB000FF7505EA0325154325432943018130BDFD
:101DC0002DE9F04105460E46174698460024434645
:101DD0003A4631462846FFF7E5FF2C894FF6F87062
:101DE000044044F007044FF68F70044044F0700440
:101DF0002C81BDE8F081F0B504460D4616461F461D
:101E00003B46324629462046FFF7CCFF208940F466
:101E100080402081F0BD0185828270470A46002102
:101E200001884FF68F731940114301807047F0B558
:101E30000C4615461E460021002200230189028B14
:101E4000038C4FF6F877394021434FF6FC473A4070
:101E500040F201173A434FF6DD773B404FF6FF77EC
:101E600007EA06172F433B43018102830384F0BD39
:101E70000A460021018B4FF68F73194011430183ED
:101E800070470A460021018B48F6FF7319404FF650
:101E9000FF7303EA02231943018370470A460021B6
:101EA000818B4FF68F7319401143818370470A4627
:101EB0000021818B48F6FF7319404FF6FF7303EA48
:101EC000022319438183704721B1028842F08002C6
:101ED000028004E002884FF67F731A400280704748
:101EE00021B1828842F00402828004E082884FF6A9
:101EF000FB731A408280704721B1828842F0080249
:101F0000828004E082884FF6F7731A40828070471F
:101F100021B1828842F00102828004E082884FF67B
:101F2000FE731A40828070470A460021018B4FF6EB
:101F3000F77319401143018370470A460021018B52
:101F40004FF2FF7319404FF6FF7303EA0223194360
:101F5000018370470A460021818B4FF6F7731940C1
:101F60001143818370470A460021818B4FF2FF7332
:101F700019404FF6FF7303EA022319438183704728
:101F80000A460021018B4FF6FB7319401143018370
:101F900070470A460021018B4FF6FF3319404FF678
:101FA000FF7303EA02231943018370470A460021A5
:101FB000818B4FF6FB7319401143818370470A46AA
:101FC0000021818B4FF6FF3319404FF6FF7303EA70
:101FD00002231943818370470A460021018B4FF683
:101FE0007F7319401143018370470A460021018B1A
:101FF000C1F30E014FF6FF7303EA02231943018375
:1020000070470A460021818B4FF67F7319401143B8
:10201000818370470A460021818BC1F30E014FF680
:10202000FF7303EA02231943818370470A460021A4
:10203000018C4FF6FD7319401143018470470A4625
:102040000021018C4FF6F77319401143018470474A
:102050000A460021018C4FF6DF7319404FF6FF73DB
:1020600003EA02131943018470470A460021018CD8
:102070004FF67F7319404FF6FF7303EA02131943BB
:10208000018470470A460021018C4FF6FF53194026
:102090004FF6FF7303EA02231943018470470A468F
:1020A0000021018C4FF2FF7319404FF6FF7303EAD2
:1020B00002231943018470470A460021018C4DF622
:1020C000FF7319404FF6FF7303EA0233194301848B
:1020D000704730B5002301248C40A3B2048C9C438C
:1020E0000484048C02FA01F5ADB22C43048430BDA3
:1020F00030B5002304248C40A3B2048C9C43048498
:10210000048C02FA01F5ADB22C43048430BD70B5E5
:102110000346002000241846183001258D40ACB23B
:102120001D8CA5431D8409B1082909D100EB61006C
:10213000056825F0700505600568154305600EE02B
:102140000D1FC5F34E052844056825F4E0450560DC
:1021500005684FF6FF7606EA02263543056070BD36
:1021600021B1028842F00202028004E002884FF6A8
:10217000FD731A400280704721B1028842F00402C8
:10218000028004E002884FF6FB731A400280704719
:1021900021B1828842F08002828004E082884FF67A
:1021A0007F731A408280704702884FF6F7731A4097
:1021B000028002880A430280704782884FF68F733C
:1021C0001A40828082880A438280704702894FF6D3
:1021D000F8731A40028102890A430281704702891A
:1021E0004FF67F731A40028102890A4302817047C9
:1021F0008184704781857047818670470187704769
:1022000081877047A0F84010704702884FF6FF435F
:102210001A40028002880A43028070470146888E75
:1022200070470146088F70470146888F7047014606
:10223000B1F8400070470146888C70470146088D10
:10224000704702460020138A0B4201D0012000E0B3
:1022500000207047CA430282704730B50246002012
:1022600000230024158A05EA0103958905EA010483
:1022700013B10CB1012000E0002030BDCA4302823E
:102280007047000010B50446FB48844209D1012183
:102290008803FFF79BF800214FF48040FFF796F882
:1022A00032E0F648844209D101214804FFF79BF847
:1022B00000214FF40030FFF796F825E0F048844203
:1022C00009D101218804FFF78EF800214FF4802006
:1022D000FFF789F818E0EB48844209D10121C804CE
:1022E000FFF781F800214FF40020FFF77CF80BE0A6
:1022F000E548844208D101210805FFF774F8002160
:102300004FF48010FFF76FF810BD2DE9F04786B04D
:1023100005460E460024A24600BFA1460027B0890C
:1023200000B100BF2F462C8A4CF6FF700440F088A5
:1023300004432C82AC894EF6F3100440B0883189F6
:102340000843718908430443AC81AC8A4FF6FF40CF
:102350000440B0890443AC8201A8FEF7B0FFC64830
:10236000874202D1DDF810A001E0DDF80CA0A889B9
:1023700010F4004F08D00AEBCA0000EB0A103168D5
:102380004900B0FBF1F807E00AEBCA0000EB0A10C5
:1023900031688900B0FBF1F86420B8FBF0F004016B
:1023A0002009642101FB1089A88910F4004F08D08E
:1023B000322000EBC900B0FBF1F000F0070004434D
:1023C00008E0322000EB09106421B0FBF1F000F0CE
:1023D0000F0004432C8106B0BDE8F0874FF416517E
:1023E000016000218180C18001810C214181002197
:1023F0008181704710B502460020108A4FF2FF031A
:1024000018400B884C8823438C882343CC88234373
:102410001843108210BD0021018041808180C1805D
:10242000704721B1828942F40052828104E082899E
:102430004DF6FF731A4082817047F0B503460024C1
:10244000002600250020A1F510676A3F00D100BFDB
:102450001846C1F3421401F01F06012707FA06F5DA
:10246000012C01D10C3004E0022C01D1103000E02D
:1024700014301AB107682F43076002E00768AF43C2
:102480000760F0BD1AB1838A0B43838202E0838A1E
:102490008B4383827047028A4FF6F0731A400282A0
:1024A000028A0A430282704782894FF2FF731A4000
:1024B000828182890A438281704721B1828942F0F8
:1024C0000202828104E082894FF6FD731A40828104
:1024D0007047028A4FF6DF731A400282028A0A436B
:1024E0000282704721B1028A42F48042028204E0F3
:1024F000028A4BF6FF731A4002827047C1F308024A
:102500008280704701468888C0F30800704781893F
:1025100041F0010181817047028BD2B20283028BAC
:1025200042EA012202837047028B02F47F42028357
:10253000028B0A430283704721B1828A42F0200253
:10254000828204E0828A4FF6DF731A4082827047EB
:1025500021B1828A42F01002828204E0828A4FF620
:10256000EF731A408282704721B1828A42F00802DA
:10257000828204E0828A4FF6F7731A4082827047A3
:1025800021B1828942F40042828103E08289C2F350
:102590000E028281704721B1828A42F400628282F7
:1025A00004E0828A4FF2FF731A4082827047828A67
:1025B0004FF6FB731A408282828A0A4382827047F6
:1025C00021B1828A42F00202828204E0828A4FF6BE
:1025D000FD731A408282704702460020B1F5007FE9
:1025E00000D100BF13880B4201D0012000E0002081
:1025F000704701F40072B2F5007F00D100BFCA43FA
:102600000280704770B50246002400230025002098
:10261000A1F510666A3E00D100BFC1F3421501F07A
:102620001F03012606FA03F3012D02D196893340D8
:1026300006E0022D02D1168A334001E0968A33402B
:102640000C12012606FA04F41688344013B10CB1BA
:10265000012000E0002070BD10B500220023A1F58C
:1026600010646A3C00D100BF0A1201249440A3B256
:10267000DC43048010BD00000038014000440040ED
:1026800000480040004C0040005000407047704738
:10269000704770477047754600F028F8AE46050051
:1026A0006946534620F00700854618B020B5FEF76E
:1026B000DDFABDE820404FF000064FF000074FF074
:1026C00000084FF0000B21F00701AC46ACE8C00950
:1026D000ACE8C009ACE8C009ACE8C0098D46704759
:1026E0000446AFF300802046FDF789FD004870479F
:1026F000C80200200000000000000000002F0000C1
:1027000000000700070000147F147F1400242A7FB4
:102710002A12006264081323003649552250000033
:102720000503000000001C224100000041221C00A3
:102730000014083E08140008083E0808000000A025
:102740006000000808080808000060600000002021
:1027500010080402003E5149453E0000427F4000FF
:10276000004261514946002141454B310018141285
:102770007F10002745454539003C4A494930000152
:102780007109050300364949493600064949291EA1
:102790000000363600000000563600000008142203
:1027A0004100001414141414000041221408000203
:1027B0000151090600324959513E007C1211127C28
:1027C000007F49494936003E41414122007F414155
:1027D000221C007F49494941007F09090901003E47
:1027E0004149497A007F0808087F0000417F410085
:1027F000002040413F01007F08142241007F4040FB
:102800004040007F020C027F007F0408107F003EE2
:102810004141413E007F09090906003E4151215EC8
:10282000007F091929460046494949310001017FC5
:102830000101003F4040403F001F2040201F003F5B
:102840004038403F0063140814630007087008070D
:1028500000615149454300007F41410000552A5520
:102860002A55000041417F0000040201020400409B
:1028700040404040000001020400002054545478BD
:10288000007F4844443800384444442000384444DD
:10289000487F00385454541800087E09010200187B
:1028A000A4A4A47C007F080404780000447D4000B8
:1028B000004080847D00007F102844000000417F9C
:1028C0004000007C04180478007C08040478003878
:1028D0004444443800FC242424180018242418FC00
:1028E000007C0804040800485454542000043F4469
:1028F0004020003C4040207C001C2040201C003C2C
:102900004030403C004428102844001CA0A0A07C7B
:10291000004464544C4414141414141400000000B3
:10292000000000000000000000000000000000F8AF
:1029300000000000000000333000000000100C0612
:10294000100C0600000000000000000040C07840AD
:10295000C0784000043F04043F040400007088FC79
:1029600008300000001820FF211E0000F008F000D1
:10297000E018000000211C031E211E0000F0088842
:10298000700000001E2123241927211010160E00AC
:10299000000000000000000000000000000000E057
:1029A000180402000000000718204000000204186C
:1029B000E00000000040201807000000404080F0C8
:1029C000804040000202010F01020200000000F0FE
:1029D000000000000101011F0101010000000000D2
:1029E0000000000080B07000000000000000000047
:1029F00000000000000101010101010100000000D0
:102A00000000000000303000000000000000000066
:102A100080601804006018060100000000E0100843
:102A20000810E000000F102020100F00001010F818
:102A3000000000000020203F202000000070080857
:102A400008887000003028242221300000300888D7
:102A5000884830000018202020110E000000C020FF
:102A600010F8000000070424243F240000F8088820
:102A7000880808000019212020110E0000E01088AD
:102A800088180000000F112020110E0000380808DF
:102A9000C83808000000003F0000000000708808EF
:102AA00008887000001C222121221C0000E0100870
:102AB0000810E0000000312222110F00000000C0C9
:102AC000C000000000000030300000000000008066
:102AD0000000000000008060000000000000804056
:102AE000201008000001020408102000404040406F
:102AF00040404000040404040404040000081020C2
:102B00004080000000201008040201000070480806
:102B10000808F0000000003036010000C030C8286E
:102B2000E810E0000718272423140B000000C03829
:102B3000E0000000203C23020227382008F88888A3
:102B400088700000203F202020110E00C0300808AF
:102B500008083800071820202010080008F8080886
:102B60000810E000203F202020100F0008F888887F
:102B7000E8081000203F20202320180008F888884B
:102B8000E8081000203F200003000000C0300808C3
:102B90000838000007182020221E020008F808004C
:102BA0000008F808203F210101213F20000808F813
:102BB000080800000020203F202000000000080836
:102BC000F8080800C08080807F00000008F888C0F6
:102BD00028180800203F20012638200008F80800A7
:102BE00000000000203F20202020300008F8F800DE
:102BF000F8F80800203F003F003F200008F830C0F0
:102C00000008F808203F200007183F00E0100808DF
:102C10000810E0000F10202020100F0008F808080E
:102C20000808F000203F210101010000E010080821
:102C30000810E0000F18242438504F0008F8888846
:102C400088887000203F2000030C30200070880826
:102C5000080838000038202121221C00180808F834
:102C6000080818000000203F2000000008F80800B5
:102C70000008F808001F202020201F000878880086
:102C800000C83808000007380E010000F80800F8F6
:102C90000008F800033C0700073C030008186880A0
:102CA0008068180820302C03032C30200838C80016
:102CB000C83808000000203F200000001008080865
:102CC000C83808002038262120201800000000FE07
:102CD000020202000000007F40404000000C30C0B3
:102CE00000000000000000010638C00000020202DF
:102CF000FE000000004040407F0000000000040291
:102D000002020400000000000000000000000000BB
:102D100000000000808080808080808000020204AB
:102D200000000000000000000000000000008080A3
:102D3000808000000019242222223F2008F8008011
:102D400080000000003F112020110E0000000080D4
:102D500080800000000E1120202011000000008063
:102D60008088F800000E112020103F200000808095
:102D700080800000001F222222221300008080F0A9
:102D8000888888180020203F2020000000008080D4
:102D900080808000006B94949493600008F8008019
:102DA00080800000203F210000203F200080989874
:102DB000000000000020203F2020000000000080D4
:102DC0009898000000C08080807F000008F8000014
:102DD00080808000203F24022D302000000808F869
:102DE000000000000020203F202000008080808024
:102DF00080808000203F20003F20003F80800080B6
:102E000080800000203F210000203F2000008080C3
:102E100080800000001F202020201F008080008074
:102E20008000000080FFA12020110E000000008023
:102E300080808000000E112020A0FF808080800014
:102E40008080800020203F21200001000000808041
:102E5000808080000033242424241900008080E036
:102E6000808000000000001F202000008080000003
:102E700000808000001F202020103F2080808000E4
:102E80000080808000010E300806010080800080F4
:102E9000008080800F300C030C300F000080800019
:102EA000808080000020312E0E3120008080800044
:102EB0000080808080818E701806010000808080F4
:102EC000808080000021302C222130000000000092
:102ED000807C020200000000003F40400000000033
:102EE000FF00000000000000FF0000000002027C64
:102EF000800000000040403F00000000000601018B
:102F0000020204040000000000000000108040FFE6
:102F100000010000342F0008000000200002000023
:102F20006C0100080C300008000200202807000097
:102F3000C80100085184A24A04E009010203040602
:102F40000708091BF010012AFF050215F01B0F04EA
:102F5000012AFF0502130F18094040405F555555DF
:102F600075041A5F0C091121080C11200F094989F9
:102F7000790909090F201F112FFE02424ACA4A038C
:102F800004134202FE000E14FF40504C4340404FD9
:102F900050505C40FF1BF888012AFF050215F81B02
:102FA0001F08012A7F200B109F80E23B80820100D6
:102FB0000916E2A2928A86828080041840807F17D8
:102FC0002424A4FEA3221B22CCAA01141508060166
:102FD000FF2B0104010511FF020202580810101016
:102FE000FF109008C3021108080F150444827F01E6
:102FF000808040432C10284681A0712D01020304DB
:0C30000004000900060708090204060885
:0400000508000131BD
:00000001FF
